{
    "_format": "hh-sol-artifact-1",
    "contractName": "Transactions",
    "sourceName": "contracts/Transactions.sol",
    "abi": [
        {
            "anonymous": false,
            "inputs": [
                {
                    "indexed": false,
                    "internalType": "address",
                    "name": "from",
                    "type": "address"
                },
                {
                    "indexed": false,
                    "internalType": "address",
                    "name": "receiver",
                    "type": "address"
                },
                {
                    "indexed": false,
                    "internalType": "uint256",
                    "name": "amount",
                    "type": "uint256"
                }
            ],
            "name": "Transfer",
            "type": "event"
        },
        {
            "inputs": [
                {
                    "internalType": "address payable",
                    "name": "receiver",
                    "type": "address"
                },
                {
                    "internalType": "uint256",
                    "name": "amount",
                    "type": "uint256"
                }
            ],
            "name": "addToBlockchain",
            "outputs": [],
            "stateMutability": "nonpayable",
            "type": "function"
        }
    ],
    "bytecode": "0x608060405234801561001057600080fd5b5061023d806100206000396000f3fe608060405234801561001057600080fd5b506004361061002b5760003560e01c8063b64782e514610030575b600080fd5b61004a600480360381019061004591906100b5565b61004c565b005b7fddf252ad1be2c89b69c2b068fc378daa952ba7f163c4a11628f55a4df523b3ef33838360405161007f9392919061011e565b60405180910390a15050565b60008135905061009a816101d9565b92915050565b6000813590506100af816101f0565b92915050565b600080604083850312156100c857600080fd5b60006100d68582860161008b565b92505060206100e7858286016100a0565b9150509250929050565b6100fa816101a3565b82525050565b61010981610155565b82525050565b61011881610199565b82525050565b60006060820190506101336000830186610100565b61014060208301856100f1565b61014d604083018461010f565b949350505050565b600061016082610179565b9050919050565b600061017282610179565b9050919050565b600073ffffffffffffffffffffffffffffffffffffffff82169050919050565b6000819050919050565b60006101ae826101b5565b9050919050565b60006101c0826101c7565b9050919050565b60006101d282610179565b9050919050565b6101e281610167565b81146101ed57600080fd5b50565b6101f981610199565b811461020457600080fd5b5056fea2646970667358221220f1da2b36aa9255de4838e7541251544a7a9ba6834a7d31655f403d1d41f84a8764736f6c63430008000033",
    "linkReferences": {},
    "deployedLinkReferences": {}
}